:020000040800F2
:10000000588A002049010008C1A30008499E000841
:1000100011A30008E58C0008C5C700080000000017
:100020000000000000000000000000005B0100086C
:1000300059960008000000005F01000861010008F7
:10004000630100086301000863010008D5A90008E6
:1000500063010008630100086301000863010008F0
:1000600063010008630100086301000863010008E0
:1000700063010008630100086301000863010008D0
:1000800063010008630100086301000863010008C0
:10009000A1C60008630100086301000863010008AD
:1000A00063010008630100086301000863010008A0
:1000B00079BE0008B5BE00086301000863010008AE
:1000C0006301000863010008630100086301000880
:1000D0006301000811C500086301000863010008FE
:1000E0006301000863010008630100086301000860
:1000F0006301000863010008630100086301000850
:1001000063010008C5AE0008630100086301000830
:10011000630100086301000863010008630100082F
:10012000630100086301000863010008630100081F
:10013000DFF810D000F0AEFB004800475907010877
:10014000AFF30080588A00200648804706480047E1
:10015000FEE7FEE7FEE7FEE7FEE7FEE7FEE7FEE777
:10016000FEE7FEE719BE00083101000810B5441A89
:100170000346944209D28418114403E011F8013D6A
:1001800004F8013D521EF9D210BD40EA0104A40753
:1001900003D009E010C9121F10C3042AFAD203E0E9
:1001A00011F8014B03F8014B521EF9D210BDD2B227
:1001B00001E000F8012B491EFBD270470022F6E750
:1001C00010B513460A4604461946FFF7F0FF2046CD
:1001D00010BD2DE9FE4F804681EA0300C00F0C469A
:1001E000009021F0004123F00045B8EB0200A94146
:1001F00005D24046214690461C460B46024623F057
:100200000040104347D0270DC7F30A00C3F30A513B
:100210000290401A019040286BDAC3F3130040F4B7
:10022000801B0098924620B10023D2EB030A63EBB7
:100230000B0B01985946C0F14002504600F035FAC8
:1002400006460D4650465946019A00F04DFA10EB0D
:1002500008006141002487EA115284EAE7731A43D7
:1002600040D0009A62B3019A012A4FEA075215DC86
:10027000001B61EB02014FF0004202EA0752CDE998
:100280000042001C41F5801132462B4600F084FAF2
:1002900003B0BDE8F08F40462146F9E7001B61EB53
:1002A0000201001C41F5801300185B412018A2F5E3
:1002B000001747EB030140EAD570B6196D4111E014
:1002C0006D084FEA360645EAC0754FEA0752001B33
:1002D00061EB0201001C41F5801149084FEA300032
:1002E0000019514132462B4603B0BDE8F04F00F0F3
:1002F00044BA0098012240000023D0EB020263EBD5
:10030000E073009821464FEAE074B8EB000061EB1F
:100310000401E9E783F000435BE781F0004158E71F
:100320002DE9FE4F81EA030404F0004421F000416E
:1003300000944FF0000B23F0004350EA01045ED01C
:1003400052EA03045BD0C3F30A54C1F30A552C44A8
:10035000A4F2F3340194A0FB0254C1F3130141F45D
:100360008011C3F3130343F4801301FB024400FB29
:10037000034E840A970A44EA815447EA8357A4FB50
:10038000076802958D0A05FB07854FEA932C04FB4D
:100390000C542705029D4FEA065847EA1637B5EB7D
:1003A00008056EEB070C870E920E47EA811742EAAA
:1003B0008312A7FB0201B6EB0B0164EB00042B0DCB
:1003C00043EA0C335E1844EB1C50DA465146E7FB17
:1003D0000201C5F313044FEA0B3343EA14534FEA07
:1003E0000432019C43EA0603A4F10C040294009C2D
:1003F000CDE900B400F0D0F903B0BDE8F08F0020E3
:100400000146F9E72DE9F04D81EA030404F0004BC1
:1004100021F0004514464FF0000A23F0004150EA55
:10042000050220D054EA01021DD0C5F30A57024646
:10043000C5F31303C1F31300C1F30A5640F480154A
:1004400043F48013A7EB0608101BD64608F2FD38CC
:1004500073EB050002D308F1010801E092185B413B
:10046000B8F1000F03DA00200146BDE8F08D00204E
:100470004FF48011064684460EE0171B73EB050708
:1004800005D3121B63EB050306434CEA010C490834
:100490004FEA300092185B4150EA0107EDD152EA71
:1004A000030012D082EA040083EA0501084305D064
:1004B000101BAB4106D20122002306E000224FF0C0
:1004C000004302E06FF0010253101AEB06004CEB00
:1004D000085110EB0A0041EB0B01BDE8F04D00F0B4
:1004E0004CB996230022114600F019B90EB5C10F80
:1004F00080EAE0700844CA07002140F233438DE8E7
:100500000E000A460B4600F047F903B000BD0EB5D9
:1005100040F2334102910021CDE900110A460B4619
:1005200000F03AF903B000BD00F0004220F00040B6
:10053000C10DC0F3160040F400007F2901DA00204D
:100540007047962903DCC1F19601C84001E0963955
:100550008840002AF4D040427047C1F30A5210B5D7
:10056000C1F3130140F2FF3341F480119A4201DAE2
:10057000002010BD40F233439A42A2F2334203DC22
:10058000524200F0A1F810BD904010BD00F00042B2
:1005900030F000400AD0C10D01F56071C0F31600C3
:1005A00042EA0151C208400711437047002001464A
:1005B0007047000030B5041E71F1000404DB4FF0F9
:1005C0000044404264EB0101141E73F1000405DB9A
:1005D0001C464FF00043524263EB04038B4208BFBA
:1005E000824230BD01F0004330B421F0004150EAB6
:1005F000010206D00A0DA2F56072C1F31301002AB0
:1006000002DC30BC00207047440F44EAC104C10042
:10061000E01830BC00EBC25000F078B830B50B46A3
:10062000014600202022012409E021FA02F59D4222
:1006300005D303FA02F5491B04FA02F52844151EF6
:10064000A2F10102F1DC30BD2DE9F05F054600208A
:1006500092469B4688460646814640241BE0284633
:1006600041464746224600F02FF853465A46C01AE4
:10067000914110D311461846224600F016F82D1A63
:1006800067EB01084F4622460120002100F00DF8DB
:1006900017EB00094E41201EA4F10104DFDC48469F
:1006A00031462A464346BDE8F09F202A04DB203A23
:1006B00000FA02F1002070479140C2F1200320FAB5
:1006C00003F3194390407047202A04DB203A21FAB3
:1006D00002F00021704721FA02F3D040C2F120025B
:1006E0009140084319467047202A06DBCB17203A71
:1006F00041FA02F043EAE07306E041FA02F3D04027
:10070000C2F1200291400843194670470029A8BF52
:100710007047401C490008BF20F00100704710B42A
:10072000B0FA80FC00FA0CF050EA010404BF10BCDF
:10073000704749B1CCF1200421FA04F411FA0CF10C
:1007400018BF012121430843A3EB0C01CB1D4FEA45
:1007500000614FEA102042BF002010BC704700EB40
:10076000C35010440029A4BF10BC7047401C49006E
:1007700008BF20F0010010BC704710B5141E73F1C3
:10078000000408DA401C41F1000192185B411A4351
:1007900001D120F0010010BD2DE9F04D92469B469D
:1007A00011B1B1FA81F202E0B0FA80F22032904643
:1007B000FFF77BFF04460F4640EA0A0041EA0B01BF
:1007C00053465A46084313D0114653EA010019D044
:1007D000C8F140025046FFF777FF05460E465046E7
:1007E00059464246FFF761FF084305D0012004E067
:1007F00020463946BDE8F08D0020054346EAE07604
:100800002C4337430A986305E40AA0EB0800002252
:10081000FD0A44EA47540A3002D500200146E9E7C0
:10082000010510196941DDE9084500196941BDE874
:10083000F04DA2E7C1F30A52C1F3130140F2FF33B6
:1008400041F480119A4202DA00200146704740F2DA
:1008500033439A42A2F2334202DC5242FFF734BFE2
:10086000FFF723BF30B5041E71F1000404DB4FF025
:100870000044404264EB0101141E73F1000405DBE7
:100880001C464FF00043524263EB0403994208BFF9
:10089000904230BD064C074D06E0E06840F0010391
:1008A00094E8070098471034AC42F6D3FFF744FCB5
:1008B00048760108687601082DE9F041D0F80C80EF
:1008C00086B0044600200E46174601F06FFE05462E
:1008D000B8F1000F05D098F8043013B140F00200D1
:1008E00001E025F0020001F061FE216969B10120FB
:1008F0006388228803900290E0680190A0680090CD
:100900000C6830463946A0471FE0DFF85080124B94
:10091000D8F8002021461B68527CE0689847E1889F
:1009200020B9012904BFD8F80030986B6388228869
:100930000590A0680490A088029101210390019184
:1009400000913046394603F055F9284606B0BDE817
:10095000F04101F02BBE00BFC4000020D4000020F5
:100960004D4B2DE9F04F1A688BB0D169CC69A38942
:10097000834208D8E589854205D32568C31A0695C0
:100980004FF0FF3613E0A368002B7CD01D88A842EF
:1009900079D35E88864276D35B68401B666880B2F6
:1009A00003EB8005069633F92030B5F90260581C38
:1009B000099368D091F818B0A17CB2F92A900BFB8A
:1009C00001F34846B2F92270B2F92480079394F8F3
:1009D00010A003F02FFE079B089018462E4D099B90
:1009E0002968CA69896B0591069900FB0310049078
:1009F000A37C4146039301230293D37E384601939F
:100A0000937E524600935B4603F0F4F8731C1AD0B1
:100A100049F0020003F00EFE2A680699D369926B32
:100A200038460592079A02FB06160496A27C4146B8
:100A3000039201220292DA7E01929B7E524600933B
:100A40005B4603F0D7F82B68DB695A7E1B7E9A421F
:100A500015D9B9F1020F12D089F0040003F0EAFDB4
:100A60000D4B1B68D869437E827E017EC07E434465
:100A700000FB01810AFB0272384603F025FA9DF85B
:100A8000200003F0D7FD044B617C1A68538C0B44A3
:100A900053840BB0BDE8F08FD4000020044B1B68DA
:100AA000DB69DB6909B11A7C0A60587C704700BFBA
:100AB000D400002002230B807047C3699A898A42C0
:100AC00002D8DA898A420FD2986880B103889942A5
:100AD0000CD342888A4209D3C91A436833F82100EB
:100AE000C043C0F3C03070470120704700207047FA
:100AF0002DE9F04F384C89B023680646B3F92A80B7
:100B0000DB690146D86900F090F8002860D00588BC
:100B10004768751B07EBC506404696F802A003F030
:100B200089FDD4F800C017F83520DCF81CE0DCF8AB
:100B300038309EF818B0BCF924108146BCF9220068
:100B4000059373684FF0010C0493CDF80CA0CDF819
:100B500008C09EF81BC05B46CDF804C09EF81AE0A2
:100B6000CDF800E003F046F82368DA69537E92F886
:100B700018A00793534520D9B8F1020F1DD092F861
:100B80001BB000F01BFD804600F000FD01F0FCFCF6
:100B9000226817F83550B2F92410B2F92200D26950
:100BA000079BD27E0BFB031305FB02020BFB0A1112
:100BB00003F08AF9404601F0E7FC484603F03AFDAD
:100BC00023687178DA69907E5A8C00FB01225A847E
:100BD00009B0BDE8F08F00BFD400002038B50C4B41
:100BE00002461B680C46DD690146E86900F01DF805
:100BF00060B103884168D21A01EBC200AB7E407835
:100C000058431CB111F832205343236038BD00BF54
:100C1000D400002001230B80704708B5C06900F0A4
:100C200004F8003018BF012008BD38B103888B429A
:100C300002D843888B4201D28068F6E7704708B13A
:100C400004F016BD7047000073B50646FFF7F7FFC6
:100C5000054660B100F0AEF8064B02AC44F8040D56
:100C60001B68324600219847204600F0C7F8284606
:100C700002B070BDE8000020024B21F003011860B3
:100C800059607047F480002010B5044660B1074BEE
:100C90005B6B03EBC0035968486804F097FC20467F
:100CA000BDE8104007F0D8BD10BD00BF5083002044
:100CB00028B1034BDA6B026002B15060D863704711
:100CC000508300202DE9F0410746264E033707F0F8
:100CD00023FB27F00307306C0437F26B874238BFE1
:100CE0000746144634B154F8043C9F4223682CD084
:100CF0001C46F7E7F368B26B02EB030858F8045C94
:100D0000C5EB08052B6833B1204607F0D7FD58F82E
:100D1000045CC5EB08052B680BBB6B689F421EDCAF
:100D200028461C1D07F0AAFDF3686868DB1BF3600A
:100D30007369E41B3B44C01B2C44736102D02946F9
:100D400004F044FC44F8047C09E00BB1616859608C
:100D5000616801B10B60A24201D12368F3632046B0
:100D6000BDE8F0815083002008B507F0D5FA0C4AA1
:100D700000239918D1F8BC0010B1836800200BE063
:100D8000083B13F1800FF4D108E05A689B68904249
:100D900038BF104613B19B68002BF6D10C3808BD44
:100DA00050830020024B18680C3820EAE07070472E
:100DB00050830020054BDA690132DA615A6B12F870
:100DC0003030013302F8303000F030B8508300206A
:100DD00008B5FFF7C9FF6422B0F5800F88BF90FB0C
:100DE000F2F0054B8BBF1B6A1B6A5843584398BFF0
:100DF000B0FBF2F008BD00BF5083002030B503689F
:100E0000094953F8085C4C6B14F83530012B03D9B1
:100E1000CA690AB1013ACA61013B04F835300023BE
:100E20000360184630BD00BF50830020034B5B6B4E
:100E300003EBC00040680830704700BF50830020BB
:100E4000C3B2CAB29A1A92B210B514B2002CBCBF87
:100E5000524214B204FB04F2C0F30723C1F3072487
:100E60001B1B9BB21CB2090C002CC1EB1041B8BF7C
:100E70005B4289B208B2B8BF1CB204FB042300284D
:100E8000BCBF494208B280B200FB003010BD000078
:100E9000002110B5084600F0E5FBBDE8104043F620
:100EA000FF7302491A46084600F002B801C0FFFF6E
:100EB0002DE9F3410446042016461F460D4603F073
:100EC000B9FB134B80461B696846DA6C1B6D1444F2
:100ED0001D4416441F44ADF80040ADF80460ADF861
:100EE0000250ADF8067004F0D7F928B9404603F077
:100EF000A1FB02B0BDE8F0813B46324629462046C0
:100F000002F0E2FF04F0DEF80028F5D1EEE700BFC2
:100F1000C4000020012BF8B506460D4617461C46B6
:100F200001DD0020F8BD1C20FFF7CCFE0028F8D022
:100F30000DB1056109E0094B53F8241029B10B6884
:100F40000BB11946FBE70B690361002383608461E1
:100F50008782C66003604360F8BD00BF288400201C
:100F600038B51D46FFF7D6FF044648B100F00EF82D
:100F7000E3681B6823B9034B16351B6843F825400B
:100F8000204638BDD4000020FFF792BE30B508B926
:100F9000012030BD8469012CFADC1B4B1A78944285
:100FA000A4BF621C1A70194A52F8243015461BB9A6
:100FB00042F82400184630BD5A680AB11346FBE7D0
:100FC000C2681268D9680968914203DD1B68002B6A
:100FD000F8D1DDE709D1818A012906D1196821B14B
:100FE0000B46C96809688A42F8DD5A6812B1106078
:100FF000426001E045F824005860984208BF002391
:101000000360002030BD00BF218400202884002020
:1010100081690A4A52F821309842036804D142F8A3
:1010200021300BB100225A60426802B1136003689C
:1010300003B15A6000230360436070472884002096
:10104000012809DC054B53F8200020B1C3681B6858
:101050001BB10068F9E77047002070472884002022
:101060002DE9F04F054685B000287FD000F0B0FA9A
:10107000404C07462368A146B3F9228000F0CAFA23
:10108000226886B2938C9B1B93842B78002B61D0B3
:1010900047F6FF71284602F08BFB01468246284640
:1010A00002F056FB2268938D03F00303012B04D05A
:1010B000022B04D190FBF3F302E0034600E000238F
:1010C000518C1FFA80FBCB1A9BB219B25184ADF838
:1010D0000810B2F924200BF1FF310B44ADF80C30AD
:1010E000ADF80A20BBB2013A1A44ADF80E205146C1
:1010F00002AA2846019301F0BDFD2268BDF80A103E
:1011000028469184514601F0B1FA2A5C05EB000EA5
:101110000A2A019B01D00D2A12D12268918D01F07B
:101120000301013901298ABF118CA2F82280518460
:101130009EF800100A290AD1918C0B44938406E092
:10114000BDF80800D9F800308344A3F822B09EF817
:10115000003043B923689A8C16449A8D9E8422F0FD
:1011600003029A8502E00EF101058EE705B0BDE8A5
:10117000F08F00BFD4000020024B1B6859849A8472
:10118000FFF76EBFD4000020F8B50B4B05461B6877
:101190000E46B3F92C00174640F0020001F02EFA7B
:1011A00004463A4628463146FFF7E6FF2046BDE8AA
:1011B000F84001F023BA00BFD4000020114B73B5F2
:1011C0001B680646DC6C1D6D03880C44013B234400
:1011D000ADF8043043881544013B2B446846ADF814
:1011E0000040ADF80250ADF8063004F055F838B1C3
:1011F0002A4621463046FFF75FFB03F063FFF6E720
:1012000002B070BDD40000202DE9F04F99B0914696
:101210009A4618AA0FAB0DF1140842F8503D00276A
:10122000CDF80080102306460D46059706F0A0FE77
:101230000446002840F0FE800BAF0499384602F0C7
:1012400013FCBDF82E30132B00F0E5801CD80B2BBF
:101250004AD00CD8082B49D002D8062B4ED2EBE04E
:10126000092B45D00A2B40F0E780774CD4E00F2BB8
:1012700044D002D80D2B41D9DEE0102B3AD0112BEF
:1012800040F0DA80714CC7E0192B27D00FD8162B0D
:1012900020D005D8142B1BD0152B00F0CF80CBE02D
:1012A000172B19D0182B40F0C780694CB4E01C2BC9
:1012B00018D006D81A2B13D01B2B40F0BD80654CDC
:1012C000AAE01D2B18D0642B40F0B680624BA4E03E
:1012D000624CA1E0624C9FE0624C9DE0624C9BE05E
:1012E000624C99E0624C97E0624C95E0624C93E06E
:1012F000624C91E0624C8FE0624C8DE00022063B34
:10130000079206929346092B00F29680DFE803F0DD
:101310000526949494944C56946607AB00930EAAB9
:1013200043462946CDF804B0304606F0A4FE13AA81
:10133000069029463846CDF800B0002301F07FFC26
:10134000069B059A0A93BDF83830294608934E4B00
:101350003046179308AB03F079FB4EE007AB0093E0
:101360000EAA43462946CDF804B0304606F083FE67
:1013700013AA069029463846CDF800B0002301F0A4
:101380005EFC069B414A0A93BDF8383017920893D9
:10139000BDF83A30059A8DF82430294608AB30461E
:1013A000169303F079FB28E00023CDF800B013AAD0
:1013B0002946384601F043FC354B08E00023CDF8C0
:1013C00000B013AA2946384601F039FC314B059A82
:1013D00029463046179303F0F5FA0EE0002313AACE
:1013E00029463846CDF800B001F029FC2A4B059A71
:1013F00029463046179303F005FB5246494613A889
:10140000FFF7DCFE079BDBB106A8FFF7F7FC0798A8
:10141000FFF73AFC14E0214C214B0393059B8DE828
:10142000900002934A4653462946304606F0A8F9F2
:10143000044605E03C4603E0012401E0194CEBE7DB
:10144000204619B0BDE8F08F14700108946F0108B0
:10145000A46F010894700108ED780008E46F01089A
:10146000C46F0108B46F010874700108647001084A
:1014700084700108047001083470010824700108A8
:10148000547001084470010890750108B075010896
:10149000407501083075010870750108F46F010886
:1014A000F5770008D46F01082DE9F04F314D8BB06E
:1014B0002E68149CF56C366D05EB000A06EB010BEB
:1014C00015441E4408A8ADF820A0ADF82450ADF88E
:1014D00022B0ADF8266003F0DFFE002847D063009D
:1014E000009304FB04F30193CBEB06030133059354
:1014F000CAEB050301330693059B009A934232DB46
:101500001346069A93422EDCA0465F460BEB04037B
:1015100002930AEB040303932B1B0493029B9F4249
:101520001ADC019B08FB183002F044FB049A039B71
:1015300002EB00091B1A394618464A46079302F087
:101540006BFC079B311B41444A46184602F064FC81
:10155000013708F1FF38E1E7331B013B2A463946E2
:10156000504602F0B1FC03F0ADFD0028C4D10BB031
:10157000BDE8F08FD4000020034B082153F8200071
:10158000C3689B6A184700BF2884002008B502F092
:10159000CBFCBDE8084002F0B1BD0000024B0021C9
:1015A0001B68DB695B681847D4000020024B1B688E
:1015B000DB695B68184700BFD400002008B502F063
:1015C000BBFCBDE8084002F099BD02F0B5BC0000CC
:1015D000024B1B68DB69587E704700BFD4000020B7
:1015E000044BB3F900300360034BB3F900300B60D8
:1015F000704700BF1684002018840020044835235B
:10160000037034238370C37061230371704700BF7C
:10161000BA0000200A4B1A68938D03F00C03082BC4
:1016200007D00C2B05D0042B07D1D369187E0138C5
:101630007047D369187E400870470020704700BF8C
:10164000D4000020024B53F820301B691868704703
:1016500028840020024B53F820301B6958687047DB
:1016600028840020024B1B6858849984002070470E
:10167000D400002090B583B000AF334A324B1B68D2
:1016800023F001031360314B01221A6000BF2F4B7E
:101690001B68002BFBD12E4B2E4A1A602C4B1B686B
:1016A0002D4A934200D0FEE701F0B6F92B4B2E22D3
:1016B0001A7008F0C7FB2A4806F0EEFD07F078FA2A
:1016C000786002F0C9FC0346002B0CBF0123002305
:1016D000DCB202F0CDFC0346002B0CBF012300233B
:1016E000DBB22343DBB2002B09D002F0BEFC044680
:1016F00002F0C7FC03461946204602F095FF002180
:10170000002000F05FFF03F03FFB164B1B68002B2F
:1017100012D00DE0134B1B681B68002B03D0114B3C
:101720001B681B6898470F4B1B685B680D4A13606A
:101730000C4B1B68002BEDD10B4B01221A707B6800
:1017400018460C37BD4690BD002000E0083002402E
:1017500000300240C2A507F4CDB5E8B514840020DE
:1017600008810020808100202084002013B518B952
:101770000D4B1B68186EA8B1FFF71CFB02AB446948
:1017800043F8080D1846FFF739FB5CB12046FFF718
:1017900011FB836802AC44F8040D9B68984720460F
:1017A000FFF72CFB02B010BDD4000020014A114607
:1017B00000F002B801F0FFFF2DE9F0430C4685B0C0
:1017C00015460646002843D0002000F0EFFE224BCD
:1017D00007461B683046D3F86080FFF7EBFA0368D2
:1017E0000190986900F0B8FE019A1C4B81469C421A
:1017F000138908BFB2F9044003F1FF332344ADF865
:101800000C30538908BFB2F90650013B2B44ADF8A8
:101810000E30ADF80840ADF80A5003F063F901A8A6
:10182000FFF7ECFA02A803F037FD48B9484600F08C
:1018300093FE404600F074F9384600F0B7FE07E02A
:101840002A462146304600F04FFA03F03BFCECE715
:1018500005B0BDE8F08300BFD400002001F0FFFF19
:101860002DE9FF470F4690469946184B06461B68E0
:101870000C9D587C164B53F82040E3681B68042BE2
:1018800006D02468002CF8D1FFF7DAFB044630B10B
:10189000E3680121DB6A20469847824608B90020A8
:1018A00010E02469A3689847013004BF094C45F053
:1018B000010502948DE820044B46424639463046E5
:1018C00000F080F904B0BDE8F08700BFD40000202C
:1018D00028840020D075010837B50446D0B10E4BDE
:1018E0001B681B6E984201D100F02DFE2046FFF7C9
:1018F00061FA0190406908B100F0AEFF02AD55F801
:10190000043D1868FFF740FB2846FFF777FA2046AA
:10191000FFF7BAF903B030BDD40000202DE9F04F35
:101920009846524B87B003921A680646547C504A38
:10193000029112572046012A9B4606DD02F092FBD7
:101940008146204602F09AFB05E002F07BFB8146CF
:10195000204602F07DFB044636B305A904A8FFF734
:101960003FFE049A059B9144B6F90070B6F9025007
:1019700009F1FF321C44B6F90490B6F9063027EAA3
:10198000E77725EAE575013C4A45D4BFC7EB020974
:10199000C7EB09099C42D4BFC5EB0404C5EB0304A3
:1019A00009F10109013401E035463746B8F1000F6D
:1019B00001D1C4F10008B9F1000F53DD002C51DD55
:1019C000109B4A460093294643463846FFF748FF96
:1019D000064620B90398029B9847012043E000F097
:1019E00071F88442804606D0DBF80030986C10B164
:1019F000322103F0CBFD304600F092F8A2464FF0C2
:101A00000009D04503DD5146304600F073F8B9F1C6
:101A1000000F08D0304609EB0502394600F0A6F861
:101A20003046FFF7A3FE029B03989847114B1B68B3
:101A30000BB1FF2098473046C144FFF7B7FE4C4535
:101A4000C8EB0A0ADDDC3046FFF746FF002000F055
:101A500067F8444506D0DBF80030986C10B13321AC
:101A600003F094FD002007B0BDE8F08FD400002003
:101A700023840020B481002037B5044670B1FFF7FD
:101A800099F9036802AD1B6945F8040D9B689847F6
:101A900002F081FF04462846FFF7B0F9204603B064
:101AA00030BD13B558B1FFF785F902AB43F8040D0B
:101AB00000F118041846FFF7A1F92046FFE702B02D
:101AC00010BD000013B518B9094B1B68186E50B152
:101AD000FFF770F902AB43F8040DB0F90A4018465D
:101AE000FFF78CF900E00446204602B010BD00BFAD
:101AF000D400002013B50C4618B9084B1B68186EAB
:101B000050B1FFF757F9B0F90A300190A342C8BFAE
:101B1000448101A8FFF772F902B010BDD400002083
:101B2000114BF7B51A680646176E1C4610B900F03F
:101B30000AFD16E00FB100F006FD03F0DBF83046B9
:101B4000FFF738F9236802AD45F8040D1E660068FA
:101B5000FFF71CFA2846FFF751F902F0DFFD02F00B
:101B600043FD384603B0F0BDD400002037B50D4624
:101B7000144618B9124B1B68186EF8B1FFF71AF922
:101B800024B22DB2C4808580009002F02DFD009B10
:101B9000586980B1FFF70EF9009B0190B3F9082056
:101BA000B3F90A308280C38012B10BB10580448042
:101BB00001A8FFF723F96846FFF720F903B030BD0D
:101BC000D40000202DE9F04F464D1C462B6887B00D
:101BD00081468A4690465B7C002212991198109F9C
:101BE000FFF798F90395064680B303699B68984709
:101BF00002F0D1FE00FB08F50290FFF7E9F817F0BC
:101C0000010704BF042390FBF3F005F1070508BFAB
:101C100000EB4000002C4FEAD50544DC1DB118381C
:101C2000B0FBF5F000E0284664428442A8BF0446B9
:101C300077B90097234642465146484600F094FD46
:101C4000002C834639DC3046FFF79EF9002046E041
:101C5000002CF8DD05FB04F01830FEF7F0FF074616
:101C60000028F0D04FF0000B3846FFF7A3F80346EA
:101C7000029A06A840F8043DA3F804901E60A3F859
:101C800006A0A3F808805C81DD601A61C3F814B077
:101C9000FFF7B4F8129BB7603361039B1B685B7C52
:101CA000B36138461BE0002FD4D10097234642464B
:101CB0005146484600F058FD834605FB04F01830B5
:101CC000FEF7C2FF07460028CED13046FFF75CF989
:101CD000BBF1000FBAD05846FEF7D6FFE1E707B0D8
:101CE000BDE8F08FD40000202DE9F04F9BB00891A3
:101CF00009920546002800F09983FFF75BF81AABBC
:101D000043F81C0D44691846FFF778F82846FFF79A
:101D1000B3FE08280746A54E02DD002C00F0C9815D
:101D200001230027284619930D931897FFF742F8CF
:101D30000268B0F90A3012690E93536832680DF1E7
:101D4000680949F8140D0469D0F81480D0F80CA083
:101D5000B0F908B0507C0C93FFF70EFC32680B9082
:101D6000507CFFF777FC0A904846FFF747F8082CAD
:101D70000A9A0D9B04D9102C8CBF0423022305E082
:101D8000012C03D118AB0D940A9301E00D930A972F
:101D90000C9B934200F0DF803368587CFFF752FCC5
:101DA0000F904FEA8B00FEF74AFF1090002800F0DA
:101DB0003D832846FFF775FE0546B8F1000F00F099
:101DC000B9804046FEF7F6FF05EB0A0311930023A6
:101DD000DDF8249016900993119B099ACAEB03072A
:101DE0000E9B934240F3A2801698002317938368BA
:101DF0000DF15C085B69099A4146984783450546A1
:101E000028D11098FEF7D6FF0F9B082C01930C9B4E
:101E10000146149000935A460B9B384602D903F0B2
:101E20006EFD01E003F08AFD0A9B1AAD059355F89B
:101E3000183D08980493002303930B9B5A46029382
:101E4000012301930093494601F0D4FE2846FEF792
:101E5000D5FF62E0012C02D04FF0010857E0002DC1
:101E60005BD01798089E00F0070306930A9B2A464A
:101E70000593082390FBF3F33B440493012302935F
:101E80000193009349463044CDF80CA002F058FC71
:101E9000179B16981D44836817955B69099A4146FC
:101EA00098470546DBE71098FEF784FF0F9B014635
:101EB0001490019317980C9B0D9E082C00932A46B2
:101EC0000B9B00FB067025D903F019FD0A9B1798A0
:101ED0000593149B089E0493002303930B9B2A46AF
:101EE0004946029330440123CDF80480CDF80080A8
:101EF00001F080FE14A8FEF781FF179B16981D4481
:101F0000836817955B69099A17A998470546002DBC
:101F1000C9D102E003F012FDD8E7099B09F10109DC
:101F200001330993119B5344119355E716A8FEF70B
:101F300065FF0EE00A9B0490059301230193009333
:101F4000CDF80CA002940E9B5A460999089801F00E
:101F500051FE109868E22846FFF7A3FD0746B8F146
:101F6000000F00F09A804046FEF724FF00251690EF
:101F70000E9BAB4240F38D80169800231793836825
:101F80000DF15C085B692A46414698478345064641
:101F900026D12E46169806F1010983684A465B69E8
:101FA00041469847834503D14E46F3E7D4000020CD
:101FB0000A9BC5EB0608099908F10108059301235E
:101FC0000497019300932944CDF80CA00294434652
:101FD0005A46089801F00EFE0AFB0877354656E08F
:101FE000012C099B04D02B440B934FF001092BE0EB
:101FF000A04603EB05092EB3DDF85CE008980EF06F
:10200000070306930A9B3246059308239EFBF3F3CE
:102010003B447044049349460123CDF80CA0CDF80D
:102020000880CDF80480CDF8008002F089FB179B72
:1020300016981E44836817965B692A4617A9984725
:102040000646D8E7574422E0002EFBD00A9BDDF875
:102050005CE005930D9B089803FB0E7332467044B9
:1020600004930B990123CDF80CA00294CDF80490B1
:10207000CDF8009001F0BEFD179B16981E448368B2
:1020800017965B692A46414698470646DCE70135C4
:102090006EE716A8FEF7B2FEC8E10A9B049005930E
:1020A000012301930093CDF80CA002940E9B5A4695
:1020B0003AE02846FEF77EFE83461AA8BBF90A30AE
:1020C00040F810BDDBF800200B93DBF80C30D2F8A1
:1020D00010800C93BBF90840FEF790FE3268D8F8E8
:1020E0000490507CA14A52F82020166933680A9364
:1020F000FFF742FA08280C9B06D910288CBF4FF036
:10210000040A4FF0020A01E04FF0010AB04510D175
:10211000002205922246039301230BF1180001933C
:1021200000930B9B049002970999089801F062FDB7
:102130007CE1202F40F0A2800AFB04F0FEF77FFD37
:102140000D90002800F07281FEF734FE18902846AA
:10215000FEF730FE169033694FEACA0200F1180507
:102160004FEA840B0C9273B3DDF824804FF0010921
:10217000BAF1020F05D0BAF1040F02D0BAF1010F83
:1021800006D128463769534622461899B8475D4418
:102190000023189A059303930C9B04920293224602
:1021A0000123CDF80490CDF800904146089801F045
:1021B00021FD0B9B099A08F1010713449F4200F08F
:1021C0002C81B846D4E7099F1E460B9B4FF00109AE
:1021D0003B440993BAF1020FDDF8608016D0BAF1E2
:1021E000040F24D0BAF1010F30D143462A4652F8E9
:1021F000040B0E930A9B0B9298470E9B0B9A03F8C5
:10220000010BE11A18EB010FF1D11EE043462A46FB
:10221000A04652F8040B0E930A9B0B9298470E9B14
:10222000B8F1010823F8020B0B9AF2D10DE02A460F
:10223000234652F8040B0E930A9B0B9298470E9B71
:1022400048F8040B013B0B9AF3D15D44189B0596AB
:1022500004930C9B03960293CDF804900123CDF8D0
:10226000009022463946089801F0C4FC099B07F10A
:102270000108434500F0D1804746ABE7102F40F0FE
:10228000D58004FB0AF0FEF7DAFC0D90002800F080
:10229000CD80FEF78FFD18902846FEF78BFD169037
:1022A000336900F1180713B1D8F8143053B94FEA65
:1022B000CA03099D0C930B9B66002B444FF0000B47
:1022C000099383E0B0F908008000FEF7B8FC0C9099
:1022D00018B1FEF76FFD179001E00C9B1793179B49
:1022E000002B00F09A8063000A93DDF824B04FEAD7
:1022F000CA030E93BAF1020FDDF8609006D0BAF16E
:10230000040F05D0BAF1010F11D101E0534600E0EE
:102310000223384622461799D8F81450A847534646
:102320002246494617983569A8470A9B1F4400234F
:10233000059303930E9B189A029301230492019331
:10234000009322465946089801F054FC0B9B099AC9
:102350000BF101091344994501D0CB46CAE717A8F0
:10236000FEF74CFD0C98FEF78FFC56E02884002009
:10237000BAF1040F41D0BAF1010F11D143463A46E8
:1023800032F8020B0E930B92C8470A9B98470E9B9C
:102390000B9A03F8010BE11A18EB010FF0D1374447
:1023A000189BCDF814B004930C9BCDF80CB002939D
:1023B00001230193009322462946089801F01AFC54
:1023C000099B05F10108434527D04546BAF1020FA4
:1023D000DDF86080CCD143463A46A04632F8020B85
:1023E0000E930B92C8470A9B98470E9BB8F10108C1
:1023F00023F8020B0B9AF1D1D1E73A46234632F883
:10240000020B0E930B92C8470A9B98470E9B48F805
:10241000040B013B0B9AF2D1C1E716A8FEF7EEFCC4
:1024200018A8FEF7EBFC0D98FEF72EFC1BB0BDE8DC
:10243000F08F00BF10B538B309B30AB3B2F900404A
:10244000B1F90030A342A8BF2346B2F9024003808D
:10245000B1F90230A342A8BF2346B2F90440438039
:10246000B1F90430B2F90620A342B8BF23468380F5
:10247000B1F906309342B8BF1346C38010BD114670
:102480000B6803604B68436010BD68B1038889B274
:102490000B440380838892B219444388818013449B
:1024A0004380C3881A44C28070470000F0B4164DC0
:1024B000049E2D68059CB5F90870B842B8BF38462F
:1024C000B5F90C70BA42A8BF3A4690421ADCB5F989
:1024D0000A70B5F90E50B942B8BF3946AB42A8BF31
:1024E0002B468B420EDBE5682D6835F0040504D1E0
:1024F00005940496F0BC01F05BBF2568002DF7D071
:102500002C46F0E7F0BC7047D4000020B0F9022060
:10251000B1F906309A4214DCB1F90220B0F9063064
:102520009A420EDCB0F90020B1F904309A4208DC7E
:10253000B0F90400B1F900308342CCBF0020012083
:1025400070470020704708B502F004F802F0E6F882
:10255000BDE8084002F0C6BA70B5084D01282B68E6
:1025600004465E7C08D8FEF76BFD28B12B685C74CE
:10257000FFF7E9FF024B1C60304670BDD40000201D
:10258000708A002002F006B802F03CB8034B6FF0EE
:1025900070421B681A6302F03BB800BFD4000020F1
:1025A000014B5860704700BFC400002002F042B8E1
:1025B000034B1B68DA6900B1D8611046704700BF51
:1025C000D4000020094B10B41880094B0A4619802A
:1025D000084B1B68597C084B53F82130D9680C6AAA
:1025E00001461846234610BC184700BF1684002039
:1025F00018840020D400002028840020034B1B688E
:10260000B3F92C2098851046704700BFD4000020F5
:10261000034B1B68B3F92A2058851046704700BF4A
:10262000D4000020024B1B6803B11847704700BF5D
:1026300048820020024B1A6802B91860FFF7F2BF07
:10264000E8810020F8B5084E0468336805461B6829
:1026500020469847336807465B68204698472044E1
:1026600028603846F8BD00BF44840020F8B506460F
:102670000D46064F00243DB13B6830465B689847E5
:10268000013D06440444F6E72046F8BD448400209A
:102690002DE9F843054688469946089C1444AB68E2
:1026A000561C5F6841464B462846B847B4423246FE
:1026B000F5D1BDE8F883F8B5B0F90040091BB0F9D1
:1026C0000440A14232DA0B44013BDF43B0F902502F
:1026D000CE10521B056901F0070405FB0265FF21BE
:1026E00007F00707143541FA04F401FA07F7D6EBAF
:1026F000E30600EB0502E4B2FFB210F805E004D1F6
:102700003C404EEA04044455F8BD44EA0E044455E6
:10271000751E002D02F1010305DD18462A46FDF75E
:102720004FFD03462B441C783C431C70F8BDB0F9A8
:102730000030C91AB0F90230D21A03695A43143270
:1027400002EBE102802301F0070143FA01F1835C0F
:10275000194381547047B0F90630026900215A4389
:102760001430FDF72DBD00002DE9F74302F10F04F1
:1027700024116400804603FB04F014300F46164613
:102780001D46FEF761FA814688B1FEF713FB03464A
:10279000094A02A89A60012240F8043D9E80A3F8ED
:1027A00000805F80DD809A811C61FEF727FB484630
:1027B00003B0BDE8F08300BF30760108B0F9063001
:1027C000F0B5934244DD0C68B0F90460B4423FDADE
:1027D000E3101D46076907FB0232731EC5EBE303D6
:1027E00002F115051432825C054404F007008240B2
:1027F000D2B23AB973B3083415F8012B013B24F077
:102800000704F6E7170603D45200D2B20134F9E701
:10281000FF2A06D02046560604D55200D2B2013017
:10282000F9E7E01D00F00702072A0DD1013B0BD4A8
:1028300015F8012BFF2A01D10830F7E7130603D55D
:102840005200D2B20130F9E7001B0C600130F0BD3C
:102850000020F0BD1846F0BD37B50546FEF7AAFAD0
:10286000848902AB013C24B243F8040D84811846EC
:10287000FEF7C4FA14B92846FEF706FA03B030BDD5
:102880001FB508B9024600E003AA002302A901A867
:1028900000F002FF05B05DF804FB082A10B50EDD5C
:1028A000102A0ADC034600EB410150F8042B23F800
:1028B000022B8B42F9D1012010BD002010BD022A4D
:1028C0002AD10446036801294FEA8313DBB220D0E2
:1028D000426802294FEA021202F0300243EA020380
:1028E00001D1083016E0826803294FEA820202F023
:1028F0000C0243EA020301D10C300BE0C268043938
:1029000002F003021343103004F8013B0029D9D12F
:10291000D1E704300021F7E7042A15D10446012944
:10292000036818BF42684FEA0313DBB21BBF02F013
:102930000F021343002102390CBF0430083004F8A1
:10294000013B0029EBD1B6E7012A034654D11A68AE
:1029500001294FEAC212D2B24BD05C6802294FEA79
:10296000841404F0400442EA040201D1083341E037
:102970009C6803294FEA441404F0200442EA04024C
:1029800001D10C3336E0DC6804294FEA041404F06A
:10299000100442EA040201D110332BE01C6905291E
:1029A0004FEAC40404F0080442EA040201D11433DB
:1029B00020E05C6906294FEA840404F0040442EA3A
:1029C000040201D1183315E09C6907394FEA440429
:1029D00004F0020442EA040217BFDC691C3304F06D
:1029E0000104224318BF203300F8012B0029AED187
:1029F00061E704330021F7E7014450F8042B03F8A2
:102A0000012B9942F9D156E713B50024009400F048
:102A10004BF802B010BD0000F0B51E4D85B0EB6F55
:102A2000002B35D16A466E460123EB671A4B03F142
:102A30000807144618685968083303C4BB42224685
:102A4000F7D1186899889B792060A3713346A180DB
:102A5000124C13F8012B04F8012B1A78002AF8D134
:102A6000FEF7CCFD10F8013B224604F8013B037849
:102A7000002BF7D1537007F0D7F907F00DFA084B88
:102A80000848C5F8943005B0BDE8F04001F014B82E
:102A900005B0F0BD08810020EC15010888810020F8
:102AA000E58600089C8100202DE9F843089F044634
:102AB000002F08BF0746082A0D46D3F8008005DD21
:102AC000102A40F3AD800020BDE8F883013A072AC0
:102AD00000F29D80DFE802F0115B9B7F9B9B9B894E
:102AE000E069C04704F120094C463043C6B2083DB6
:102AF00007F8016B002D00F08A802068C047012D87
:102B00004FEAC010C6B200F085806068C047022D51
:102B100046EA8010C6B201D108347CE0A068C04704
:102B2000032D46EA4010C6B201D10C3473E0E068D0
:102B3000C047042D46EA0010C6B201D110346AE045
:102B40002069C047052D46EAC000C6B201D1143441
:102B500061E06069C047062D46EA8000C6B201D137
:102B6000183458E0A069C047072D46EA4000C6B2B5
:102B7000B6D11C344FE0E068C04704F110094C4660
:102B80003043C6B2043D07F8016B002D3FD02068EA
:102B9000C047012D4FEA8010C6B23ED06068C047E2
:102BA000022D46EA0010C6B201D1083436E0A06812
:102BB000C047032D46EA8000C6B2DCD10C342DE0BC
:102BC0006068C04704F108094C463043C6B2023D74
:102BD00007F8016BDDB12068C047012D4FEA0010F6
:102BE000C6B2EDD104340025F2E71E692EB12A46A3
:102BF000394620460123B04709E07E1E54F8040BF5
:102C0000C04706F8010FF3432B44DF42F6D1012001
:102C1000BDE8F883043400256AE704340025B2E7F0
:102C20001E691EB102232A463946E4E7023F54F8E2
:102C3000040BC047013D27F8020FF8D1E7E710B5B4
:102C40004489D480048994808489D36001EB84040E
:102C50001034946084881480C4885480029C146169
:102C60003BB1C2891A7182891A600AB101F110025E
:102C70009A6010BD274BF7B51B6805460E4663B139
:102C8000002002F009FB002841D06A463146284660
:102C900002F076FE02F016FAF5E76B46106851680E
:102CA0001D4C03C32268BDF80030B2F84C70B2F876
:102CB00050003B44BDF80210BDF80420ADF80030D0
:102CC000BDF80630014403443A446846ADF80210AA
:102CD000ADF80420ADF8063002F0DEFA236840B902
:102CE000D96C5A8C521A5A84196D9A8C521A9A8439
:102CF0000DE0BDF8002031465A84BDF80220284678
:102D00009A846A4602F03CFE02F0DCF9E6E703B082
:102D1000F0BD00BF40840020D40000202DE9F04F1A
:102D200093B01D9F00240A900B9192461E463C6072
:102D300011AB224610A90FA800F0AEFC05460028F2
:102D400040F0BD80119B604CB342A8BF334609934D
:102D50002368587C5D4B53F8203007931B690C9314
:102D6000FEF70AFC23680890587CFEF773FC584B6A
:102D70000390984205D0574BC31A18BF01230693FE
:102D800000E0069500263546DDF824B0534653F89A
:102D9000040B0D931C9B9847030EFF2B0490059387
:102DA0007BD0002D39D10A9B099A03EB0609464BCB
:102DB0001B68B3F908304B45C4BFC9EB03059946FE
:102DC0000A9BAC1903EB0208079BA40001930F9B1D
:102DD0004846234400930B9B08F1FF321946FFF746
:102DE00065FB089B0F98172B07DC0C9B089AC5EB1B
:102DF0000B01204400F092FB01E0069B0BB901257A
:102E00000BE00444C9EB08082068039B9847B8F11D
:102E1000010844F8040BF7D1F1E72F4BB400D3F8C5
:102E20001C80B8F1000F23D0109D0F992A1921445E
:102E300010925B460F915046C047109A0F9C00239A
:102E40005AF8231054F8230011F07F4F02D142F8B2
:102E5000230004E010F07F4F08BF42F82310013335
:102E60009B45EDD13B68109543F001033B6024E0A6
:102E700005999DF814200F9BDDF8408019B91B5966
:102E800048F8043011E01959049B43F07F40134B7C
:102E90001B68984748F8040003E0109B049A43F825
:102EA00026203B6843F001033B60BBF1010B06F1B8
:102EB0000106DDF834A07FF469AF109800E02046E9
:102EC00013B0BDE8F08F00BFD4000020288400209C
:102ED000EB420008E542000800830020F4000020D7
:102EE0002DE9F04F8FB014461D4688468346189E44
:102EF0001D9FFEF763FB0B9001F01EF81A9B1B9AB7
:102F0000089043EA0209B9F1010F4FEA440306931E
:102F100002D0002307932EE0DFF8A8A2DAF80030F1
:102F2000587CFEF797FB1C9B834249D100230593F5
:102F300063000393102302930496CDF80490CDF818
:102F400000902B4622464146584600F053FE36E19B
:102F50001B9B43440A93013B09939A4B09991B68B5
:102F6000B3F90A2091420ADA069BDDF828801E4454
:102F7000079B01330793079BAB42E9DB7BE0B3F987
:102F80000E309845F0DCD9460027A742ECDA36F837
:102F900017A0089B9A4506D01C9B5046984701F005
:102FA00031FBCDF820A01A9B484609EB030A0AF131
:102FB000FF32099B414600F087FF0137D146E4E725
:102FC00008EB0503DAF80020013B0793B2F90A3059
:102FD000984507DAC8EB0308610001FB0866C8EBF7
:102FE00005059846B2F90E300799CB1A002BC8BFD9
:102FF000ED1A002D40F3E38004EB0B03013B089333
:103000000899B2F90C30CB1A002BC8BFE41AB2F9F8
:1030100008309B45BFBFCBEB0301641A06EB4106AA
:103020009B46002C40F3CB80674B1868994630BB19
:10303000664B9F423DD000230D93002F73D0D7F8ED
:103040001490B9F1000F04D01A4619460DA800F0EB
:1030500023FB00F079FF5B4B82461B68587CFEF730
:10306000F1FADAF800700990079B089A4146584631
:10307000B847002859D00B98FFF786FA9FE0136EE7
:10308000507C534A5BB952F82020D268126872B95A
:1030900000F046FF0F28D4BF00200120C8E752F8F7
:1030A00020304C481B691B1A58425841C0E718464B
:1030B000BEE70028BFD0DAF80030186E38B3FDF74D
:1030C00079FEB0F90630D0F80CA0C3EB08080AFB73
:1030D00008F8B0F904700EAAC7EB0B0708F1180343
:1030E00042F8040D03EB870800EB08071046FDF7D4
:1030F00085FE002F63D0069BCDF800A00193D9F880
:1031000000802B46224631463846C04757E0587C5F
:10311000069B8DE8300002932F4B42461C685946AF
:103120003346A0474BE0B94693E7069A0D9B5710EC
:103130007F00E3B964003BE05BF8040B099B984710
:1031400008F1010844454BF8040CF5D1DDF834B022
:103150004FF000085BF82800DAF8043008F10108A5
:1031600098474445F6D1DAF8083098473E4415F1BF
:10317000FF3509D3022322460D993046C8474FF048
:103180000008DDF834B0D7E7DAF80C30984772E77A
:1031900038F8020B1C9B9847099B9847DAF80430D3
:1031A0009847C145F4D11DB1DAF8083098473E443C
:1031B00015F1FF35E8D306EB0409B046E8E70FB098
:1031C000BDE8F08FD40000203C840020CC1501081D
:1031D00028840020D0750108388400202DE9F04FA4
:1031E00095B00792A44D219A9B46209B0C9043EAF0
:1031F00002082B680891587C1E9CFEF723FA2B6866
:103200000990587CFEF7B8F91828064606D0082819
:1032100007DD1128B4BF0227042703E02026042776
:1032200000E00127B8F1010F0AD0079B6FF070484A
:1032300023EAE37303EB43030F9300230A9317E19D
:103240002B68587CFEF706FA00230D9013AA194646
:10325000184600F021FA002840F05D8181460546BD
:10326000079BCDF8288003EB43030B9394F800A051
:10327000BAF1FF0F11D1079B0135AB4208D109F11B
:103280000109BBF1000F00F046810BF1FF3B002567
:1032900014F8033FFF2BEED0D3E0BAF1000F40F05B
:1032A000BA800C9B229AEB180E93089B4B440F9309
:1032B0000D9B9342139B14D198466B1C6078A178A8
:1032C0005A1B01EB0021079828F8021B984204F1D1
:1032D000030419466FD0207801330028EED00D4644
:1032E00076E0022F29D0042F49D0012F6FD19846C4
:1032F0003E46079AE91AC5EB020AA3786078109156
:1033000003EB002080B2229B9847099B98471099B5
:1033100008F8010B5645324604F1030408EB010599
:1033200005D109F101090BF1FF3B002503E02378EA
:103330000136002BE1D008264AE098462B46079A32
:103340004FF0010A521B1092A2786078119302EBA1
:103350000020229B80B29847099B984752461099BB
:10336000119B8A4528F8020B04F1030402EB0305C4
:1033700021D021780AF1010A0029E5D028E09846F9
:103380002B46079A4FF0010A521B1092A2786078E0
:10339000119302EB0020229B80B29847099B98472B
:1033A00052461099119B8A4548F8040B04F1030416
:1033B00002EB030505D109F101090BF1FF3B0025E3
:1033C00006E021780AF1010A0029DFD000E0524628
:1033D00000230593139B029604930B9B0F99039371
:1033E0000A9B0E9801930093012300F003FC28E050
:1033F00009F10109BBF1000F00F08D800BF1FF3BDB
:10340000002514F803AF0AF1FF33DBB2FD2B18D807
:10341000BBF1000F15DDA378607803EB002080B2CC
:10342000229B98476FEA0A02034608990C98D2B289
:103430002818494400F052FB079B0135AB42E0D10C
:10344000D6E7BBF1000F7FF411AF64E0219A089B2F
:1034500013440D93013B0B93074B0B991B68B3F976
:103460000A208A420ADD0A9B01330A930D9B0893C6
:103470000A9B5B45EADB4EE0D4000020B3F90E3036
:10348000089A9A42EFDC0C9B209AE71C9E180023B6
:103490000993209B079AF31A0E93099B934237DAFC
:1034A00017F8013C17F8020C17F8035C03EB002037
:1034B00080B2229B98478045824601D001F0A2F855
:1034C000FF2D1DD0B5B1ED43DDF82080EDB2DDF864
:1034D00038904E4508DD484653462A46414600F09E
:1034E000FDFA09F10109F4E70B9B08F101084345D6
:1034F000EDDA05E00B9B721E08990E9800F0E4FCD3
:10350000099B033701330993209BD0461E44C0E733
:103510000F9B1C44A7E715B0BDE8F08F2DE9F047DD
:103520000C1E054640F3B680082A5E6804DD102AAA
:1035300040F39A80BDE8F087013A072A00F2AA809A
:10354000DFE802F0042DA859A8A8A885671EFB1083
:1035500004F1804808F1FF3803F1FF3905EB8808D2
:1035600007F00707A94415F803A080253D41EDB2F7
:10357000C7F1070305EA0A001841B04748F80409F3
:1035800037B999F800A0012509F1FF39072702E0B2
:103590006D00013FEDB2013CEAD1BDE8F087671E46
:1035A000BB1004F1804803F1FF3908F1FF3807F040
:1035B000030715F803A005EB8808A944C0237D0084
:1035C00043FA05F5EDB27B00C3F1060305EA0A00F4
:1035D0001841B04748F8040937B9032599F800A005
:1035E0002F4609F1FF3902E0AD00013FEDB2013C89
:1035F000E9D1BDE8F087671E7B1004F1804803F134
:10360000FF3908F1FF3807F0010715F803A005EBB3
:103610008808A944F023BD0043FA05F5EDB2BB00CC
:10362000C3F1040305EA0A001841B04748F8040949
:1036300037B999F800A00F2509F1FF39012702E0F9
:103640002D01EDB20027013CE9D1BDE8F08705EB83
:1036500084072544641B15F8010DB047E54247F87F
:10366000040DF8D1BDE8F0875F6937B122462946DD
:10367000BC46BDE8F0470223604705EB440705EB75
:10368000840537F8020DB047013C45F8040DF8D128
:10369000BDE8F087BDE8F0872DE9F843294C1D46C9
:1036A00023690646884617463BB920460123236115
:1036B000254B40F8143F00F0FFF9E368DFF88490F1
:1036C00043B9224B1B68C9F80C301BB900F0BDFC94
:1036D000C9F80C000DB1E3682B607EB12368194D69
:1036E00043B9E8688000FDF7EDFA2860B0FA80F58C
:1036F0006D0900E000252368336000E03546B8F12D
:10370000000F0DD063680F4E3BB9F0688000FDF7E5
:10371000D9FA0028706008BF01256368C8F8003036
:1037200067B1A368074E3BB9F0688000FDF7CAFA9D
:103730000028B06008BF0125A3683B602846BDE8AB
:10374000F88300BF00830020318800081C8400201B
:1037500037B5154A02AB43F8081D019012681946A7
:1037600090470190E8B1114B1B68DB695C690CB1B3
:1037700024680CB9254602E00099A04711E0009B9F
:10378000013B002B009307DB01A8FEF75BFF04461B
:10379000FDF704FF0544F2E7204600F025F8284431
:1037A000FFE703B030BD00BFD8000020D4000020E8
:1037B00037B50D460190044688B10A4B1B68DB699A
:1037C0005C6954B1646844B1A04709E001A8FEF700
:1037D00039FF20B10A2802D00134AC42F6DB204682
:1037E00003B030BDD400002013B5002402A941F875
:1037F000044DFDF7DBFE019B9842ACBF2046181A32
:1038000002B010BDB1F90030B0F900209A42B8BF43
:103810000380B0F90220B1F902309A42B8BF438068
:10382000B0F90420B1F904309A42C8BF8380B0F9DE
:103830000620B1F906309A42C8BFC380704770B500
:10384000B1F90030B2F9005006469D42B8BF1D469E
:10385000B1F902300580B2F90200B1F904408342A7
:10386000B8BF0346B2F9040073808442A8BF04467F
:10387000B2F90600B1F90620B4808242A8BF024620
:10388000A542F28004DC9342CCBF0020012070BD31
:10389000002070BD024B01461B68587C00F002B846
:1038A000D40000200128F7B506460C4662DC334DF3
:1038B0006B6803B19847012C04D0022C20D0002C57
:1038C00058D133E005EB8605AF68AFB93046FDF758
:1038D000B7FB019000284DD0C3680D215B6A01A899
:1038E00098470346002845D0214601989847AB6881
:1038F00038460133AB603EE0781CA86020463AE0D1
:103900003046FDF79DFB0190002833D0C3680D21A0
:103910005B6A01A89847044600282BD02B6803B1A6
:10392000984702210198A047002024E0B4002B19F9
:103930009B68012B01D0012015E03046FDF780FB8C
:1039400001900028F7D0C3680D215B6A01A8984751
:1039500006460028EFD0094B1B6803B198470021A9
:103960000198B04700202544AB68002B18BF013BED
:10397000AB6000E0012003B0F0BD00BF508200202A
:103980000B0E4FEA106302FB03F24FF0FF03B2FB92
:10399000F3F208BF20F07F4130B5C0F307249D1A31
:1039A00044F080730C0A04F0FF146C4300F0FF1025
:1039B00002FB0344424301F0FF1305FB0321090A04
:1039C00004F0FF2401F0FF10204330BD2DE9F04F3B
:1039D00006460F46904687B09DF850300493129BE0
:1039E0009D00109B05EB8303039300230193174B6A
:1039F000139A0199914226D0C246B346DDF8489009
:103A000002975BF8040B0499020E4A43FF21B2FBB4
:103A1000F1F2029CD2B254F8041B40F07F400294B1
:103A20001C680593A047B9F1010940F07F404AF8AE
:103A3000040B059BE5D1039A2E441744019AA84430
:103A400001320192D4E707B0BDE8F08FF400002006
:103A50000246036833F8020B13607047024603689E
:103A600053F8040B1360704737B502AC44F8041DDB
:103A700005462046FFF7ECFF28802046FFF7E8FFC9
:103A800068802046FFF7E4FFA8802046FFF7E0FFAC
:103A9000E8802046FFF7DCFF28812046FFF7D8FFAB
:103AA00068812046FFF7D4FFA8812046FFF7D0FFAA
:103AB000E88103B030BD000080B483B000AF78600F
:103AC000054B1A687B685A60034A7B68136000BF25
:103AD0000C37BD4680BC70477C8100202DE9F04743
:103AE000184F98463C680546B4F90A300E468B429A
:103AF000914624DCB4F90E30994220DCB4F9083048
:103B000083421CDCB4F90C30984218DC00F065FAF2
:103B10000D4B4A461C6801464046A04700F05CF841
:103B20003B6829465A7C094B53F822403246E368E9
:103B30009F690346BC462046BDE8F0476047BDE8A4
:103B4000F08700BFD4000020F4000020288400206B
:103B500070B5840742BF02F1FF3201800230540881
:103B600024D0032C234601EB014502D800EB83034C
:103B700017E0264600F11003043E032E43F8105CC4
:103B800043F80C5C43F8085C43F8045C03F1100351
:103B9000F2DC043CA3085E1C00EB0610A4EB8303DC
:103BA000E4E7984202D040F8045BFAE7D30748BF45
:103BB000018070BD10B5102100234FF08042D41851
:103BC000A04224BF1319001B01394FEA53034FEAE7
:103BD0009202F4D1184610BD044B1B685A7C044B6A
:103BE00053F822301B691B68184700BFD40000201F
:103BF000288400202DE9F04F8FB0189CDFF814E2E4
:103C00000294199C1D9E0894DEF800E01B9C05465A
:103C100003940091904601931A9F1C9C0496BEF158
:103C2000000F02D0DEF800407AE0029B089A1343AE
:103C3000012B7AD1754B01991868009BB0F90A20C5
:103C4000D31A002B07DDC91A002940F3DB80039E3D
:103C500006FB034400E0009A9DE848001E44B0F9CA
:103C60000E30013EF61A002E03DD891B002940F3B9
:103C7000C98005EB0803B0F90C60013B9B1BB0F950
:103C80000860002BC8BFC3EB0808B54231DA731BCC
:103C9000082FC3EB080827D00DDC022F14D0042F07
:103CA0001AD0012F26D123F0070604EBE304354494
:103CB00003F007031EE0182F18D0202F16D0102F66
:103CC00018D104EB430413E023F0030604EBA30430
:103CD000354403F003030DE023F0010604EB630415
:103CE000354403F0010305E01C4401E004EB8304C8
:103CF00035460023B8F1000F40F38480467C4448E9
:103D000050F82600049ED0F80CE01C93039B1891F9
:103D10001A93294643461D961B941997DEF80440D2
:103D2000A4460FB0BDE8F04F6047F346C7F1080363
:103D30000B93029BDFF8D4A0013BCDF818E00D9364
:103D4000069B019A93425DDA009A089B13440993FB
:103D5000013B0A93DAF800300A99B3F90A208A4243
:103D600048DCB3F90E30009A9A4243DC2E464FF0FD
:103D700000090794CDF81490059B43453ADAB9F150
:103D8000000F06D1079B4FF0080993F800B00133EC
:103D900007930B9B0BFA07F24BFA03F313F0FF01A7
:103DA0005FFA82FBC7EB090904D1DAF80020127C24
:103DB000920717D4DAF80020D26B10680C900498A0
:103DC00010B150F8213000E0DBB213600D9A0A9B6D
:103DD00032440099304600F077F8DAF800300C9A57
:103DE000DB6B1A60059B029A01330593334613443B
:103DF0001E46C1E7069B01330693039B1C44099BA7
:103E000000939DE70FB0BDE8F08F00BFD400002005
:103E10002884002040840020114B30B41C680D46DB
:103E2000B4F90A308B4219DCB4F90E30994215DC32
:103E3000B4F90810B4F90C308142B8BF014693427E
:103E4000A8BF1346994209DC607C064A52F820005C
:103E5000C26894682A46A44630BC604730BC7047AC
:103E6000D4000020288400200A46154B30B41B687B
:103E70000446B3F90A10914220DCB3F90E108A42CD
:103E80001CDCB3F90810814218DCB3F90C1088422D
:103E900014DC197C587C11F0010F0A4951F82000FC
:103EA00004D0C368214630BCDB691847C168DB6BAE
:103EB0008D691B682146AC4630BC604730BC7047FA
:103EC000D40000202884002073B5134C2468B4F972
:103ED0000850B4F90C608542B8BF05469642A8BFA9
:103EE0001646AE4215DBB4F90A208A42B8BF0A462C
:103EF000B4F90E108B42A8BF0B469A4209DC607CD5
:103F0000064951F82000C16800930C6933462946E0
:103F1000A04702B070BD00BFD4000020288400205C
:103F2000082104F047B80000024B1B689B6B18681F
:103F3000704700BFD4000020024B1B68DB6B186881
:103F4000704700BFD400002007B50A4B1B685A7C9D
:103F5000094B53F822300193DB685B6A0BB90748C1
:103F600004E0082101A898470028F8D003B05DF8C4
:103F700004FB00BFD400002028840020FC000020A7
:103F8000024B1B68587C00F003B800BFD40000202F
:103F9000092104F00FB810B50020FDF751F8041CFA
:103FA0004FF0010018BF0124FDF74AF800B10134B9
:103FB000204610BD024B1B68587C00F003B800BFC0
:103FC000D400002010B5FDF73BF828B1BDE8104043
:103FD000C3680221DB6A184710BD08B500F004F879
:103FE000BDE8084000F08AB8F7B50446134F144EF8
:103FF0003B680D465B7C694656F82300C3681B6B23
:104000009847BDF90030A34215DCBDF904309C424D
:1040100011DCBDF90230AB420DDCBDF906309D422A
:1040200009DC3B682A465B7C214656F82300C368BE
:104030005B69984700E0002003B0F0BDD400002089
:1040400028840020032103F0B5BF032004F002B848
:10405000042103F0AFBF0000014B1868704700BF98
:10406000A8810020012103F0A5BF012003F0F2BFC9
:10407000014B5868704700BFA8810020022103F05F
:1040800099BF022003F0E6BF00F002B8AFF3008052
:104090002DE9F843044618B387681FB3144D286808
:1040A00020B32268B2F5807F1FDC124B00261B680C
:1040B0009A42A8BF1A469046464509DA57F82600A4
:1040C000D5F80090FFF788FD49F826000136F3E7A0
:1040D000094B1B680BB1204698472868BDE8F88358
:1040E000BDE8F8833846BDE8F8830020BDE8F883D2
:1040F00050860020F000002068820020044B1B68DE
:104100005A7C044B53F822301B695B68184700BF88
:10411000D400002028840020084AC0F3032300F0C4
:104120000F01D35C515CC0F30310105C03EB01433F
:1041300003EB002040F07F40704700BF147401087B
:10414000084AC0F30313D15CC0F30323D35CC0F36C
:104150000330105C1B0203EB0143184440F07F4026
:10416000704700BF14740108084AC0F34303D15CD0
:10417000C0F38313D35CC0F3C320105C1B0203EBBA
:104180000143184440F07F40704700BF1474010899
:10419000084AC0F3842300F01F01D35C515CC0F3D4
:1041A0004410105C03EB014303EB002040F07F4020
:1041B000704700BFF4730108084A00F01F01C0F304
:1041C000C423D35C525CC0F3451003EB0243044AA2
:1041D000105C03EB002040F07F407047F47301084F
:1041E000B47301080304C0F3074203F47F031343CD
:1041F00043F07F4300F47F4018437047C343C0F34C
:10420000074203F07F431A43030403F47F0313437D
:1042100000F47F4018437047084AC0F30323D15C81
:10422000C0F30313D35C00F00F00105C1B0203EB20
:104230000143184440F07F40704700BF14740108E8
:10424000084AC0F30333D15CC0F30323D35CC0F34B
:104250000310105C1B0203EB0143184440F07F4045
:10426000704700BF14740108084AC0F3C323D15C2F
:10427000C0F38313D35CC0F34300105C1B0203EB59
:104280000143184440F07F40704700BF1474010898
:10429000084AC0F34413D15CC0F38423D35C00F01C
:1042A0001F00105C1B0403EB0123184440F07F4007
:1042B000704700BFF4730108084AC0F34513D15C8E
:1042C000074AC0F3C423D35C00F01F00105C1B043A
:1042D00003EB0123184440F07F407047B47301089A
:1042E000F473010840F07F407047704738B50A4DBD
:1042F0002C6864B9094B18688000FCF7E3FC28605F
:1043000038B10748074B40F8043FFFF7D5FB0020C2
:1043100038BD012038BD00BF50860020F0000020CD
:1043200068820020C58700082DE9F74FFFF733FEAC
:104330001C4E8046B146DFF874A0002444452DDAB7
:104340002046FCF77DFE38B33368204693F811B061
:104350005C74FFF7E5FD082804DDD9F8003083F828
:1043600011B019E05AF824301A690F4B9A42F4D070
:104370002046FFF70DFE034600259D42EDDAEFB221
:1043800038460193FFF7BAFE39460246204600F050
:1043900057F90135019BF0E70134CFE703B0BDE8E1
:1043A000F08F00BFD4000020E875010828840020A9
:1043B0002DE9F04F87B00393119B9046DA680746CA
:1043C000536A0E46109CD2F814906BB9604B1B6870
:1043D000587CFDF7D1F8082815DD1128B4BF4FF03F
:1043E000020A4FF0040A10E0012111A8984705467F
:1043F0000028EBD0039B0194009332464346394694
:104400001198A847A0E04FF0010A431E002504932D
:10441000039B9E4200F39880BAF1020F09D0BAF1D3
:10442000040F04D0BAF1010F40F08C8003E0BB46CA
:104430007DE0BB4670E0049B072B00F28380DFE841
:1044400003F00E0A070704040404C4EB070B59E049
:10445000BB460F233BE0BB464FF63F7319E0BB461C
:10446000C3456FDC324659461198C8474FF67F73F3
:1044700022782B411A40C5F10703984001351043BB
:1044800025F0070320700BF1010B04EBE5041D413F
:10449000E6E7C34556DC5946324611980593C847AE
:1044A000059B6A0094F800E043FA02F1C2F10602AB
:1044B0000EEA01019040013541EA0002227025F028
:1044C000030204EBA5040BF1010B1541E1E7C34521
:1044D00038DC5946324611980593C847059BAA0017
:1044E00094F800E003FA02F1C2F104020EEA0101BD
:1044F000904041EA000222700BF1010B2C4485F040
:104500000105E4E704EB0B0188451BDB32461198FB
:10451000C84704F8010BF5E7C34513DC594632469A
:104520001198C8470BF1010B24F8020BF4E7C345BF
:1045300008DC594632461198C8470BF1010B44F884
:10454000040BF4E7013663E707B0BDE8F08F00BF66
:10455000D40000200D4B10B51C461A68517C0C4A43
:1045600052F8210040B1C36813B11B68042B01D07D
:104570000068F7E7FCF74CFD236800221A6603F198
:1045800008025A61BDE8104000F02EB8D4000020A7
:1045900028840020014B1B685B681847EC00002052
:1045A000044B1B681A7C52074CBFDB6B9B6B18607B
:1045B000704700BFD400002037B50546084C694657
:1045C00023685A7C074B53F82200C3681B6B98473B
:1045D00020686A4629460830FFF731F903B030BD3C
:1045E000D400002028840020044B1968044B4A7C26
:1045F000083153F82200C3681B6B1847D400002011
:1046000028840020014B1B681B681847EC00002021
:10461000044B1B681A7C52074CBF9B6BDB6B18600A
:10462000704700BFD4000020014B83E803007047AF
:10463000A8810020014B1B689B681847EC000020F4
:1046400037B50C461546FCF7FBFC019008B9012074
:104650000CE0C36810215B6A01A898470346002854
:10466000F5D001982A4621469847002003B030BD76
:104670001346104A30B41468B4F90820824217DC9B
:10468000B4F90C20904213DCB4F90A208A420FDC02
:10469000B4F90E2091420BDC074A647C52F82440A6
:1046A000E26895690A46AC460146204630BC604740
:1046B00030BC7047D40000202884002037B50C4659
:1046C0001546FCF7BDFC019008B901200CE0C36859
:1046D0000B215B6A01A8984703460028F5D0019892
:1046E0002A4621469847002003B030BD37B50C4616
:1046F0001546FCF7A5FC019008B901200CE0C36841
:104700000A215B6A01A8984703460028F5D0019862
:104710002A4621469847002003B030BD10B5074C0B
:104720002368186BFFF758FAFFF772FF2368586B7E
:10473000FFF752FABDE81040FFF732BFD400002067
:104740002DE9F04F8FB0189DDFF8C8E10295199D53
:10475000DEF800E008951B9D079003950C46174670
:104760000193DDF868A01C9EDDF874B01E9DBEF1BB
:10477000000F02D0DEF8004054E0029B089A134379
:10478000012B54D1614B1868B0F90A20531A002B41
:104790000ADD0199C3EB010EBEF1000F40F3B280B8
:1047A000039901FB036602E00A46DDF804E0019B81
:1047B0001C44B0F90E30013CE41A002C05DDC4EBBA
:1047C0000E0EBEF1000F40F39D80079BB0F90C1058
:1047D0003B44013B5B1A002BC8BFFF1A079B591BC8
:1047E000B0F90830994209DA5B1A1D44FF1A23F028
:1047F000070306EBE506194405F00705002F40F313
:104800008180407C424B039C53F82000C368CDF864
:1048100074B01C951B961A94CDF864A0CDF860E096
:104820005C683B46A4460FB0BDE8F04F6047754654
:10483000CAF108030B93029BDFF8D090013BCDF83F
:1048400014E00D93059B019A93425BDA089BE318F1
:104850000993013B0A93D9F800300A99B3F90A2069
:104860008A4248DCB3F90E309C4244DC079B4FF08F
:10487000000806960093CDF81080049BBB423ADAFC
:10488000B8F1000F05D1069B4FF008081D780133E1
:1048900006930B9BCAEB080845FA03F313F0FF01DC
:1048A00005FA0AF5EDB204D1D9F80020127C92077E
:1048B00019D4D9F80020D26B10680C90BBF1000F0E
:1048C00002D05BF8213000E0DBB2136000990D9A52
:1048D0000A9B0A4400982146FFF7F6FAD9F80030FF
:1048E0000C9ADB6B1A60049B029A01330493009BC1
:1048F00013440093C1E7059B099C01330593039B77
:104900001E449FE70FB0BDE8F08F00BFD400002029
:10491000288400204084002000283BD030F0010390
:1049200029D030F0030328D030F0070327D030F02F
:104930000F0326D030F01F0325D030F0FF0324D022
:1049400020F4FF7323F001030BB320F47F6323F003
:104950000F03E3B120F4FF4323F07F03BBB1030C4B
:104960001B04A3B1830C9B049BB110F07F4F0CBFC1
:104970001820202070470120704702207047032034
:1049800070470420704705207047082070471020AA
:1049900070471220704708B5FFF7BEFF01280FD0FF
:1049A000831E062B09D9A0F10903072B07D911385B
:1049B0000F288CBF0020202008BD082008BD102033
:1049C00008BD0000F8B50C4C054663680E46174656
:1049D00063B91C20FCF776F9606060B12046074B94
:1049E00040F8303FFFF768F8636823B15D601E60F0
:1049F0009F60034BA360F8BD74820020E18700082C
:104A0000497E0008F8B50D4C054623680E4617464A
:104A100063B91C20FCF756F9206070B12046084BA2
:104A200040F8103FFFF748F8236833B15D601E601F
:104A30009F60044BA360044BE360F8BDAC82002090
:104A4000F5870008897E0008158100082DE9F041EE
:104A50000E4C9846636805460E46174663B92020FB
:104A6000FCF730F9606070B12046094B40F80C3F0C
:104A7000FFF722F8636833B15D601E60DF60C3F842
:104A80000880044BA360BDE8F08100BFC482002011
:104A900009880008A97E00082DE9F0410E4C9846CF
:104AA000636805460E46174663B92020FCF70AF9ED
:104AB000606070B12046094B40F81C3FFEF7FCFFD8
:104AC000636833B15D601E60DF60C3F80880044B2B
:104AD000A360BDE8F08100BFD88200201D880008D7
:104AE000E97E0008024B01221B6883F854207047BE
:104AF000D40000202DE9F043044687B0002839D0C7
:104B0000FCF758F9034604AD019003C885E803009B
:104B100001A81E6AD3F82890FCF770F9204600F02F
:104B200093FB074630B3204600F026F919F0020F38
:104B3000804604D001463246284600F0EAFC204672
:104B4000FCF738F901904046FCF734F903903846F9
:104B5000FCF730F9039B019AD96906620290116251
:104B600001A8DC61FCF74AF903A8FCF747F902A8A1
:104B7000FCF744F907B0BDE8F0831FB5089C039427
:104B8000079C0294069C01940024009400F002F813
:104B900004B010BD2DE9F74FDDF830A098464E4B1C
:104BA00005460E461746D3F80090BAF1000F28D1FB
:104BB0004A4B1B8853B34A4B1B685A7C494B53F8EA
:104BC00022305A1C012A21D99A465046FCF7F2F8A5
:104BD000B0F90010B0F9022001900D4416441FB93D
:104BE000B0F904305F1A0137B8F1000F05D1B0F900
:104BF0000630C2EB030808F1010801A8FCF7FEF833
:104C000004E0BAF1FF3FE0D14FF0000A0F982C30DA
:104C1000FCF71AF80446002859D0304A0D9B0DF1D4
:104C2000080B49EA0309138801331380FCF7C2F823
:104C30000E9B826A03612C4B4BF8080D09EA0303B3
:104C4000058046803D4446441343013D013E836256
:104C50008580C6805846FCF7D1F8244B186848B1C7
:104C6000FCF7E4F805462046FCF7E0F86B69436181
:104C70006C6100E01C605146204600F08DFB19F08D
:104C8000200F02D0204600F069F919F0010F1FBF74
:104C9000174A13680133136019F0400F02D0204601
:104CA000FFF728FF19F0020F0DD02046FCF782F81D
:104CB000836A009043F0020383625846FCF79EF833
:104CC000204600F015F90121204600F073FC204633
:104CD00003B0BDE8F08F00BF5C8A00206A8A002024
:104CE000D4000020B88A00209F3F3F00608A002047
:104CF000748A0020034B00221B6883F85420FFF7BE
:104D000073BC00BFD400002010B50446236840687F
:104D1000172B10D007DC0E2B0FD0142B15D1E16808
:104D200000F0AAF911E0222B0CD0282B0DD1BDE800
:104D3000104000F0DDB8E06010BD2146BDE8104035
:104D400000F02CB96FF0704300E00023E36010BD69
:104D5000034B1B685A7C034B53F82200704700BF7B
:104D6000D4000020B88A002008B5034610B1FCF733
:104D70005DF8C369184608BD08B5034610B1FCF7D5
:104D800055F88369184608BD2DE9FF412A4D28785A
:104D900000284DD10446294B294E1860294B2A4F33
:104DA0001B68DFF8D0805864284BA8601880284B17
:104DB00018802046FCF744F9A8B14FF0FF320223D7
:104DC0008DE80C0043F6FF7300211A46039102960A
:104DD0000846FFF7DFFE6FF0704347F8240048F8FD
:104DE000243000F085F80134022CE2D1194800F09B
:104DF00007F9194800F004F9184800F001F91848BB
:104E000000F0FEF8174800F0FBF8174800F0F8F83B
:104E10000D4B186800F0A2F8FFF764FE01232B7019
:104E20001248134B6B6204B0BDE8F041FEF744BE7C
:104E300004B0BDE8F08100BFB8810020608A002086
:104E4000498B0008D4000020B88A0020688A00201E
:104E50006A8A0020908A0020808A0020A08A002090
:104E6000988A0020888A0020A88A0020DC810020FF
:104E700029870008788A0020F0B50F4687B00546DC
:104E8000002833D0FBF796FF866A0190B2072AD537
:104E900003C804ACF30384E8030002D5284600F0FD
:104EA000D5FA5FB13868796802AB03C302A90198EB
:104EB00000F0AEF802A92046FEF7A4FC29462046E1
:104EC00000F0AEF878B140F601033340012B06D173
:104ED000019B20461A6A996900F01BFB03E02146FA
:104EE000284600F0AFFA01A8FBF788FF07B0F0BD35
:104EF0000021FFF7C1BFF0B50F4685B01546064645
:104F000048B3FBF757FF836A04AC9B07024644F89B
:104F10000C0D03D42046FBF771FF1CE0394602A8B4
:104F2000FEF78DFC0028F5D02046FBF767FF2A46E8
:104F300002A9304603F024FA3046FFF715FF044675
:104F40004CB120462A4602A9FFF7D5FF2046FBF7C1
:104F50006DFF046AF4E705B0F0BD00000D4B70B5BD
:104F60001A680446966C1D4608B90B4B1C6894647D
:104F7000204600F0E2FAFFF737FB2046FBF756FF2A
:104F80002B68B0F90020DA64B0F9022030461A65C7
:104F900070BD00BFD4000020608A002038B50546EF
:104FA0000C4641B1FFF7E8FE28B1A5602146BDE8F7
:104FB000384000F0CDBA38BD1FB50E4B1B6893F8D2
:104FC00054200AB10C4811E0986CFBF7F3FE02ACD8
:104FD000019003C884E8030001A8FBF70FFF074B0B
:104FE000196811B1204600F01BF8204603F0C2FCFE
:104FF00004B010BDD4000020CC810020C88A00205D
:10500000024B1A6802601860704700BFD48A002003
:1050100003460846B3F90220B3F90010FDF735BA8C
:1050200073B506460D462846FBF7C4FE836A014663
:1050300013F00204019004D101A8FBF7DFFE204623
:1050400016E03046FEF7DEFB019B01A89C6954B9CF
:10505000FBF7D4FE074B1A68954208D05868431BEB
:105060005842584104E0FBF7C9FE2546DBE7012022
:1050700002B070BDB88A002037B50D4658B151B1A5
:10508000FBF798FE02AC44F8040D294600F005F841
:105090002046FBF7B3FE03B030BD00230B8002882F
:1050A0004B8083889B1A8B804288C3889B1ACB8055
:1050B000704708B5FFF760FE18B1FBF7B7FEC0698F
:1050C00008BD08BD2DE9FF415D4F3B6893F85400D2
:1050D000002800F0B1805B4A136A1446012B03DDFF
:1050E000013B13620020A7E0D36902AD013302F156
:1050F000140696E80300D36185E8030023B9938979
:10510000ADF80830D38910E0138BD28A0133ADF8A3
:105110000A20B4F910201BB29A42ADF8083006DA22
:10512000A389ADF80830638B0133ADF80A30BDF9BF
:105130000A20B4F91230DFF80C819A4204DD236AA8
:105140000020013B236277E03B68986CFBF732FE5E
:10515000BDF90820B8F90C3001909A421CD1B8F87A
:105160001230ADF80E30B8F81030ADF80C30344BCA
:105170001B689A6C5AB11046FBF758FE8046002215
:105180002946006A02F00AFED8F81820F2E7019BCF
:105190002946D86902F002FEBDF80830ADF80C309F
:1051A0003B689A6C6AB11046FBF740FE00228046CD
:1051B0002946006A02F076FD0028EDD1D8F81820C3
:1051C000F0E7019B2946D86902F06CFD0028E3D185
:1051D000B4F91030BDF90820ADF80C309A4207DD63
:1051E00095E8030086E8030001A8FBF707FE97E7B0
:1051F0003B689A6C52B11046FBF718FE0746002236
:105200002946006A02F091FDBA69F3E704AF57F846
:105210000C3D2946D86902F088FD3846FBF7EEFDC3
:1052200044F62063E2699A4289DC95E8030086E847
:105230000300FFF7C1FE012004B0BDE8F08100BF0C
:10524000D4000020B881002038B50546FFF731FFB3
:10525000044654B1AC4207D02046FBF7E7FD036A91
:105260009D4202D01C46F4E70024204638BD0000D1
:1052700010B50446FBF7DAFD80690028F9D1054B2B
:105280001A68944205D0586884420CBF01204FF040
:10529000FF3010BDB88A00202DE9F041394E86B0AC
:1052A0003268804692F8543013B9FFF785FE64E007
:1052B000354F3B6A3D460133012B3B625DDC906C10
:1052C000FBF778FD4FF0FF33FB61304B00901B780C
:1052D00013B102AB083004E0836A13F002040CD06F
:1052E00002AB03C802AC83E80300B8F1000F0CD096
:1052F00041462046FEF786FA07E03B6A6846013BD6
:105300003B62FBF77BFD204638E03368204F5A6C48
:10531000C2B1009B10685168019304AB03C33B68A2
:1053200033B101A8FBF76AFD3868FBF743FD019034
:1053300004A90198FFF76CFE204604A9FEF762FA63
:1053400001A800E06846FBF759FD396819B120460D
:10535000FFF766FE28B133682046996CFFF760FEC0
:1053600018B92B6A013B2B6208E00A4B94E8030052
:1053700083E80300FFF7A6FE00E0012006B0BDE8C9
:10538000F08100BFD4000020B88100206C8A00208A
:10539000C88A0020C48100202DE9FF4106460C4642
:1053A00000294CD0FBF706FD0023846101900362C5
:1053B0002046FBF7FFFCC76904AC44F8080D2FB981
:1053C000C66101A8FBF71AFD204636E0019B38466E
:1053D0009D6AFBF7EFFC0DF1100805F0080548F891
:1053E000040D75B9836A1A070BD5019B01A81F62CA
:1053F000029BDE61FBF702FD2046FBF7FFFC404607
:105400001BE02046FBF7FAFC4046FBF7F7FC38466A
:10541000FBF70CFD0390039B1C6A0CB91E620BE0AA
:105420002046FBF703FD002DF4D1836A1B07F1D55D
:10543000039B1E62019B1C6201A8FBF7DFFC04B00A
:10544000BDE8F081202202F09BBF000013B50446A6
:1054500000B3FBF7AFFC836A01909B0717D5406A46
:1054600040B10D4B1B689C4204D0FCF735FA019B00
:1054700000225A622046FFF777FC04463CB12046E2
:10548000FFF7E4FF2046FBF7D1FC046AF6E701A82A
:10549000FBF7B4FC02B010BDCC8A00202DE9FF411F
:1054A000804617461D460C4681B30846FBF782FC32
:1054B000866A0246B307019025D5414602A8FEF749
:1054C000BEF900B340F601033340012B07D1019927
:1054D0002B460A6A02A88969FFF7E0FF04E02A4622
:1054E00002A9204602F04CFF019BDC695CB1BC4282
:1054F00009D020462A4602A9FFF7FDFC2046FBF70B
:1055000095FC046AF2E701A8FBF778FC04B0BDE85B
:10551000F0812023FFF7C2BFB0F90020B0F90430BA
:105520009A4208DCB0F90230B0F906008342CCBFE1
:105530000020012070470020704708B5FFF798FE53
:10554000002803DBBDE80840FDF706B808BD0000F1
:1055500070B50D4C064623680D46132B12DCFBF785
:1055600065FC02696E6042B12368284601332360FE
:1055700090472368013B236070BD2846BDE870401A
:10558000FFF7C2BB70BD00BFFC82002030B50446EF
:1055900085B010220D4668460021FAF711FE20461C
:1055A000FBF744FC03691BB10194009568469847DA
:1055B00005B030BD1FB504AB43F8101D194601906E
:1055C000FFF7C6FF05B05DF804FB0000F8B5274EF5
:1055D0000546F368B26B013B0818134483420C463E
:1055E00005D34B591BB943681D4403F047F9B36B0E
:1055F0009C420AD954F8047CE71B3B682BB97B68B2
:1056000038461D443C4603F039F90F2306EBC3022C
:10561000126C954203D213F1FF33F7D223E00F2B24
:1056200021D8083306EBC30251686019002284E8D0
:105630002400A160246140F8045C04F1080001B179
:10564000486006EBC303A160E26058603368074915
:10565000EA1896F8293032602BB9CB689B1A8A6811
:10566000934288BF8B602846F8BD00BF508300205E
:105670002DE9F8430446394E02F04EFE356C33688E
:10568000AC4224BF033424F003050C35AB42334C49
:105690003ED3236B62689A420FD97368776A013BE5
:1056A0007360736B4FEAC70803EB080252687262BB
:1056B000012203F8372057B92AE0013B236302F0A7
:1056C00049FA236B013323630028E6D020E00F233F
:1056D00006EBC302126C95420CD213F1FF33F7D2E2
:1056E00008E094682CB16268954214D9A268002A37
:1056F000F7D101330F2B03D806EBC302526CF6E748
:10570000284603F0DBF80028E1D0384603F0A4F87F
:105710000020BDE8F883D4F80490336CC5EB09028F
:105720000C339A4238BF4D46204603F0A7F8736BFE
:10573000611998444D454FF00003C8F804402760B4
:105740006560A360246141F8045C03DAC5EB0900DD
:10575000FFF73CFF3846BDE8F88300BF50830020C8
:1057600001207047F0B5DFF850E00646DEF800E0B3
:105770000D4614461F46BEF1000F03D0F446BDE8A7
:10578000F0406047DFF834E00A4956F8042B013C4A
:10579000C2F307231EF80300C2F30743CB5CD2B267
:1057A0004FEAC3238A5C03EB401313442B803D4430
:1057B000EBD1F0BDB4710108EC800020B470010899
:1057C000F0B50B4E0B4F50F8045B013AC5F307449C
:1057D0005FFA85FE345D16F80EE0C5F307257D5DA2
:1057E00004EBCE2404EB45140C801944EBD1F0BD3E
:1057F000B4710108B470010870B550F8044B013A57
:105800006FEA0405C4F3074605F07F4546EA05063E
:105810004FEA044505F47F0545EA060504F47F4494
:1058200044EA05040C601944E7D170BD10B550F886
:10583000044B013A0C601944F9D110BD2DE9F8432D
:105840008146FEF79DFB0746FEF7B4FB0646E0B136
:10585000002056F820304B4517D001308742F8DC45
:10586000002425466FF07F4856F825104846FBF780
:10587000E7FA804588BF2C4605F1010588BF8046C0
:10588000AF42F1DC2046BDE8F883BDE8F8830000B4
:10589000074AC1B2C0F30743D35C525CC0F3072090
:1058A00003EBC223034A105C03EB4010704700BFB8
:1058B000B4710108B4700108C343C0F3074203F098
:1058C0007F431A43030403F47F03134300F47F4030
:1058D00018437047074AC0F30723D15C064AC0F358
:1058E0000743D35CC0B2105CDB0203EB41131844E6
:1058F000704700BFB4700108B471010870472DE90A
:10590000F84F81460D4616461F4614468846DDF878
:1059100028B0DDF82CA039F8020BD847D047013C5D
:1059200048F8040BF7D11F2F06D83A4631462846CF
:10593000BDE8F84FFCF7B1BFBDE8F88F2DE9F84F8F
:1059400080460D4616461F4689460446DDF828B0B7
:10595000DDF82CA014F8010BD847D047331B18EB07
:10596000030F49F8040BF5D11F2F06D83A463146EC
:105970002846BDE8F84FFCF790BFBDE8F88F00005F
:1059800073B5154602AB214A43F8081D194601902C
:10599000126890471E4C01902368586940B9012055
:1059A000FDF778FF2268D3695B693BB9194D22E0A6
:1059B0002946FCF7ABFD0028F1D124E0164C9B688A
:1059C000216841B1B2F922500198009998472368A3
:1059D0002846984714E000990198984710E001A8DC
:1059E000FCF730FE23680646DB691B6898472B6886
:1059F0000BB130469847009B013B002B0093EEDA39
:105A00000020FDF747FF02B070BD00BFD8000020A6
:105A1000D40000204C840020488400202DE9F0436D
:105A20000C681D68DFF898E0254405F1FF3C156817
:105A3000DEF800E02F46BEF90A800568DDF81C900C
:105A40002F444445D9F8006007F1FF350BDAC1F85F
:105A500000800899C4EB0804614321F003010E445F
:105A600019680C1B1C60BEF90E10C1EB0C0100295B
:105A7000C2BF1C68611A19601B68002B02DC012080
:105A8000BDE8F083BEF90C30EB1A002BC2BF1168E1
:105A9000CB1A13600168BEF90830994208DA5B1A24
:105AA000116806EB8306C91A116001680B44036094
:105AB0001368002BE3DDC9F800600020BDE8F08327
:105AC000D400002070B588B007AB01931C4B04468E
:105AD000009304300FC8FDF721F9079B2060DB0716
